:100000000C942B020C9448020C9448020C94A921E5
:100010000C9448020C9448020C9448020C94480238
:100020000C9448020C9448020C94D8100C94941030
:100030000C94DA1B0C9448020C9448020C9448026D
:100040000C9448020C9448020C9448020C94480208
:100050000C9448020C94B0110C9448020C94480281
:100060000C9448020C9448020C9448020C944802E8
:100070000C9448020C9448020C9448020C944802D8
:100080000C9448020C9448020C9448020C944802C8
:100090000C9448020C9448020C9448020C944802B8
:1000A0000C9448020C9448020C94480229001E004B
:1000B0001F002000210022002B0014001A0008005D
:1000C00015001700E00004001600070009000A00F0
:1000D000E1001D001B000600190005000000E30000
:1000E000390021522C002F00350027002600250062
:1000F000240023003100130012000C0018001C0023
:10010000340033000F000E000D000B00E500380036
:10011000370036001000110000002D002A00225286
:100120002800300001000100010001000100010071
:100130003A003B003C003D003E003F0035001E02FF
:100140001F02200221022202010001000100010021
:100150000100010000000100010001000100010098
:100160000100010001000100010001004500440000
:1001700043004200410040003502270226022502CA
:1001800024022302310230022F022E022D0200002F
:1001900000000100010023520100010001000100E4
:1001A000010001000100010035001E001F002000B9
:1001B000210022003A003B003C003D003E003F0091
:1001C000400041004200430044004500000001009F
:1001D00001002352010001000100010001000100A3
:1001E0000100010001002700260025002400230053
:1001F000000000004F00520051005000310030005C
:100200002F002D002E022E00000001000100010031
:1002100001000100000000000000000000000000DC
:1002200000000000000000000000000000000000CE
:1002300000000000000000000000000000000000BE
:1002400000000000000001000100010001000000AA
:10025000000000000000000000000000000000009E
:10026000000000000000000000000000000000008E
:10027000000000000000000000000000000000007E
:1002800000000100010001000100000000DA02810D
:10029000FFD9F1DB20A4A62EAF00A0C0D30000A19F
:1002A000C8D30000AED580A81F408D1420000001E7
:1002B0000101010101010101020202020202020226
:1002C00002030303030303030304040404040404F8
:1002D00005050505050606060606070707070708BC
:1002E000080808090909090A0A0A0B0B0B0C0C0C6F
:1002F0000D0D0D0E0E0E0F0F0F1010111111121209
:1003000013131414151516161717181819191A1A85
:100310001B1B1C1D1D1E1E1F2020212222232424E6
:10032000252626272829292A2B2C2D2D2E2F303122
:100330003232333435363738393A3B3C3D3E3F4034
:100340004142434445464748494A4C4D4E4F50511F
:100350005354555658595A5B5D5E5F6162646566D9
:1003600068696B6C6D6F7072737577787A7B7D7E60
:100370008082838587888A8C8E8F91939596989AB0
:100380009C9EA0A2A3A5A7A9ABADAFB1B3B5B7BAC8
:10039000BCBEC0C2C4C6C9CBCDCFD1D4D6D8DBDD9C
:1003A000DFE2E4E7E9EBEEF0F3F5F8FAFDFF00AF8A
:1003B00000AE05010906A101050719E029E71500AE
:1003C00025019508750181029501750881010507D0
:1003D000190029FF150026FF009506750881000504
:1003E000081901290515002501950575019102954A
:1003F0000175039101C009022200010100A0FA0960
:10040000040000010301010009211101000122443F
:100410000007058103080001120100020000000826
:1004200083794C4C00010102000110034C0069006B
:100430006C007900350038004C00000014034B00BC
:100440006500790063006100700073007300730041
:1004500000000403090411241FBECFEFDAE0DEBF61
:10046000CDBF11E0A0E0B1E0E8E4F8E402C00590FF
:100470000D92AA37B107D9F725E0AAE7B1E001C08C
:100480001D92AD39B207E1F70E94011C0C94CE23F6
:100490000C940000482F209199059091600557E039
:1004A000291302C080E0089530E0529FF001539F6D
:1004B000F00D1124EF59FA4F8181681306C0808135
:1004C000481303C085818111EECF2F5F3F4F277006
:1004D000E7CF982F9093E900891779F05091EC00BD
:1004E0002091ED004091F00021FD0AC09F5F973000
:1004F00089F78093E90081E00895562F40E022E0DB
:100500003091EB003E7F3093EB003091ED003D7F6A
:100510003093ED003091EB0031603093EB0050935D
:10052000EC002093ED004093F0002091EE0027FDB9
:10053000DDCF80E00895E8EDF0E080818E7F80835C
:100540001092E2001092DA001092E100A0EEB0E00A
:100550008C9181608C9380818F77808319BCA7ED0B
:10056000B0E08C918E7F8C9380818F7E80831092FF
:1005700049050895B0E0A0E0E0ECF2E00C94E3223D
:10058000C8EDD0E088818F7E8883E7EDF0E0808140
:100590008160808384E082BF81E080934905888107
:1005A0008E7F888302EE10E0F80110821092DA004C
:1005B00081EEC82ED12CF601108288818F77888336
:1005C00088818068888388818F7D888319BC109298
:1005D0005F0510925605109255051092540590EE45
:1005E000E92EF12CF70180818B7F808388818160E7
:1005F000888360E080E00E946902F60180818E7F3E
:100600008083F8018081816080838081886080831D
:10061000F70180818E7F8083888180618883CDB758
:10062000DEB7E8E00C94FF222091E4003091E50071
:1006300095E6A9012091EC00822F817020FF06C071
:100640008091E80080FF06C080E008952091E800D6
:1006500022FD1AC080915F05882389F0853089F0DA
:100660008091EB0085FD0FC02091E4003091E50002
:1006700042175307F9F29150E1F684E0089582E0C1
:10068000089583E0089581E008958091570587FFDC
:1006900013C08091E80082FF06C08091E8008B774C
:1006A0008093E80004C080915F058111F2CF089526
:1006B00080915F058823D9F38091E80080FFF8CF0F
:1006C0008091E8008E77ECCFFC0180915D059091E0
:1006D0005E0586179707A0F06115710529F49091C2
:1006E000E8009E779093E80090E06115710551F461
:1006F000911108C08091E80082FF34C080E0089525
:10070000BC01F2CF80915F058823C1F18530C1F132
:100710008091E80083FD30C08091E80082FDEACF3F
:100720008091E80080FFE1CF8091F3002091F200FA
:10073000382F6115710519F02830310558F091E016
:100740002830310509F090E02091E8002E772093C1
:10075000E800CBCF81918093F100615071092F5F48
:100760003F4FE7CF80915F05882341F0853041F00E
:100770008091E80083FFBECF81E0089582E0089574
:1007800083E0089508950895089580914B05089594
:1007900087E797E7909301088093000888E19AE043
:1007A0000FB6F894A895809360000FBE90936000F8
:1007B000FFCF2FB7F8946091450570914605809161
:1007C0004705909148052FBF08959C01FC01329682
:1007D0009FEF80E04191461751F09F3F19F441117E
:1007E00001C0982F8F5F8630A9F79F3F09F40895C5
:1007F000290F311D97FD3A95F90162830895809183
:100800004005882359F0E0914205F0914305309767
:1008100029F00190F081E02D0995089580E0089578
:10082000FC01680F791F8FEF91E32191822728E067
:1008300030E087FF09C0880F892721503109C9F7A7
:10084000E617F70791F70895880FF7CF539A0895A1
:1008500090E06623A1F0805B9E4FFC0120812F3F3A
:1008600089F0E22FE295EF70F0E080A190E02F7028
:1008700002C0959587952A95E2F781700895815B6E
:100880009E4FEBCF80E0089590E06623E9F0805B17
:100890009E4FFC0180818F3FB1F0E82FE295EF7011
:1008A000F0E041A18F7021E030E0B90102C0660F95
:1008B000771F8A95E2F7CB01962F9095942391A309
:1008C00092A1892B82A30895815B9E4FE2CF9091E4
:1008D0003A05E92FF0E040913B059F012F5F3F4F24
:1008E0002370332742171306A9F0E45CFA4F282F30
:1008F0002F7780818078822B60FB87F980839F5FD0
:10090000937090933A05809138058F5F80933805F6
:1009100081E0089580E00895FA01811101C0FB0192
:1009200009950895609144018091030380FF0CC0F4
:1009300070E08091430123E0829FC00111248F5C0D
:100940009D4F0E94A808089580914501909146010D
:1009500023E0829FF0011124EF5CFD4F891740F7DF
:100960001182108212828F5F3396F8CF8091030339
:10097000982F9C7F71F4809103038370846080932F
:10098000030380910603893718F088E780930603F4
:100990000895883080F7F5CF80E0089581E0809356
:1009A0002C020895F894E82FE295EF70F0E031A161
:1009B000282F2F7081E090E001C0880F2A95EAF778
:1009C000982F9095932391A392A1892B82A3789439
:1009D00008950F931F9380914005882329F00E946A
:1009E000D9031F910F9108950E94D9030091FA0134
:1009F0001091FB012091FC013091FD01600F711FEE
:100A0000821F931FEECF90910E0292FF10C041E023
:100A1000282F2471243009F040E031E0282F28717C
:100A2000283009F030E0431711F02CE0822793FFC3
:100A300010C041E0282F2471243109F040E031E05A
:100A4000282F2871283109F030E0431711F02CE0ED
:100A5000822730910F0230FF10C051E0282F217102
:100A6000213009F050E041E0282F2871283009F0AA
:100A700040E0541711F029E0822731FF10C041E017
:100A8000282F2171213109F040E031E0282F287111
:100A9000283109F030E0431711F029E0822794FD56
:100AA000877E089582389105B9F1B0F481339105BC
:100AB00009F47DC048F48932910509F46DC08A3289
:100AC000910509F47BC008958533910509F45FC051
:100AD0008933910509F10895833E9105D9F138F4E0
:100AE000803E910529F1823E910579F10895863E77
:100AF0009105D9F1873E910509F43EC0843E9105E8
:100B000041F520910F0221FF24C080910E0284FD47
:100B100019C087EE90E0089520910E02237009F02D
:100B20005AC020910F0223FF14C089E290E008957B
:100B300020910E0220FD38C030910F0230FF09C015
:100B400024FF43C090E080E0089520910E0222FD32
:100B5000F7CF089520910E0222FD3AC030910F0286
:100B600030FD39C024FFF5CFEDCF20910E0223FFD9
:100B7000F0CF24FDE7CFCDCF20910E0223FD2EC074
:100B800030910F0231FFEECF84EE90E00895209176
:100B90000E0225FFDECFC9CF20910E0225FD21C018
:100BA00020910F0223FFD5CF89E390E0D2CF20918F
:100BB0000E0226FFCECF8AE290E0089520910E0229
:100BC00026FFC7CF81E390E0089583EE90E008957B
:100BD00082EE90E0089580EE90E0089586EE90E039
:100BE000089585E390E00895972F7A30B8F4663041
:100BF000A8F48430B0F470E026E0929F600D711D7F
:100C00001124FB019CE3899FE00DF11D1124EE0FDF
:100C1000FF1FE455FF4F85919491089580E090E087
:100C2000089581E0FCCF1F93CF93DF930E9452057C
:100C3000EC01C11582E5D80708F03FC0C11590E569
:100C4000D90708F0C2C0C83ED105C0F4C03ED105E6
:100C500080F4C53AD10548F4C430D10550F4C13010
:100C6000D10539F0D0E0C0E004C0CD3CD105D0F3CF
:100C7000D065CE01DF91CF911F910895C11580E419
:100C8000D80708F053C0C11590E2D90708F0B7C0E3
:100C9000C11581E0D80730F38D2F0E940305182F6E
:100CA000CE0199270E945205C12FD0E0DC2FCC271E
:100CB000CC27DF71C82BD92BDCCFC03892E5D90700
:100CC000A8F4C03682E5D80708F063C0C03492E5C6
:100CD000D90708F049C0C03282E5D80788F1CF7142
:100CE000D0E0DC2FCC27C16FD06AC3CFC03C92E5E7
:100CF000D90780F48C2F8F71C03AD24508F45EC0BA
:100D00000E940305C82FD0E0DC2FCC27CC27DF7151
:100D1000D062AFCFC03E82E5D80708F0A3CFDC2F6A
:100D2000CC27CC27DF71C06FD06AA3CFCE01992723
:100D30000E945205CC27DF70C82BD92BD06A99CFDF
:100D40002C2F2695269590E2299F900111248C2F17
:100D50008370C1E0D0E002C0CC0FDD1F8A95E2F7BE
:100D6000C22BD32BDD6885CF2C2F26952695277097
:100D700080E2289F900111248C2F8370C1E0D0E085
:100D800002C0CC0FDD1F8A95E2F7C22BD32BDC68A3
:100D900070CF2C2F26952695277090E2299F9001E1
:100DA00011248C2F8370C1E0D0E002C0CC0FDD1F76
:100DB0008A95E2F7C22BD32BDA685BCFC82FD0E03D
:100DC000DC2FCC27C46FD06A54CF8C2F8F710E9438
:100DD000030555E0D695C7955A95E1F7CF70D0E059
:100DE000DC2FCC27282F30E084FF05C044E0220F01
:100DF000331F4A95E1F7C22BD32BD0693ACF8D2F01
:100E00008F710E940305182FCE0199270E94520569
:100E1000C12FD0E0DC2FCC27CC27DF71C82BD92BFA
:100E200077CF80959091B80198239093B801089559
:100E30008091990590916005981301C008958F5F86
:100E40008770FACFB0E0A0E0E8E2F7E00C94E2228D
:100E50007C0100910C0210910D0280910A02909188
:100E60000B02082B192BCFE0D0E0CC24C394D12C5B
:100E7000BC2EC6010C2E02C0880F991F0A94E2F7FF
:100E800080239123892B49F4219790F7B12C8B2D46
:100E9000CDB7DEB7E9E00C94FE22B7018C2F0E949B
:100EA000F4050E941306019779F3F1CFCF93DF93F6
:100EB000EC010E942207BE010E94F4050E94130665
:100EC000DF91CF9108959A3078F5863068F5E82F54
:100ED000F0E086E0989FE00DF11D11249E2F9770A1
:100EE00083E0F695E7958A95E1F7EE0FFF1FEE0F89
:100EF000FF1FEA57FE4F50E040E080E0219130E0D4
:100F0000092E02C0369527950A94E2F721703327FF
:100F1000042E01C0220F0A94EAF7822B4F5F5F4F25
:100F20004430510559F7089580E008959A3098F5B6
:100F3000863088F5E82FF0E086E0989FE00DF11DFF
:100F400011248E2F877041E001C0440F8A95EAF783
:100F500083E0F695E7958A95E1F7EE0FFF1FEE0F18
:100F6000FF1FEA57FE4F30E020E070E05191DF01B3
:100F70001197CB01022E02C0969587950A94E2F74D
:100F8000817081958527842385278C932F5F3F4F20
:100F90002430310559F7089590930D0280930C0287
:100FA000089521E030E002C0220F331F8A95E2F756
:100FB0002095309580910C0290910D02822393230D
:100FC0000E94CC0708959091AD018095892380936C
:100FD000AD01282F277069F4891759F090910F02FD
:100FE00092FF07C08695869586950E94D10710923C
:100FF000AD01089521E030E002C0220F331F8A9531
:10100000E2F780910C0290910D02822B932B0E94AB
:10101000CC07089590930B0280930A020895FC0177
:1010200024812223C1F0808191810E9456079295EC
:101030009F70963091F058F4925F9F70923058F400
:10104000803F19F030F4883E30F481E008959A5FD3
:10105000F4CF843FD1F380E00895883EB0F3813F20
:10106000D1F7F3CFA6E0B0E0E8E3F8E00C94E82293
:1010700049835A8349815A819923A1F0222391F00F
:10108000CA010E942207182F682F89819A810E9425
:10109000960769817A81812F0E94F4052696E3E004
:1010A0000C940423CA010E946307182FF2CF0F93F8
:1010B0001F93CF93DF938C0180915F05843059F5A6
:1010C00081E08093E9008FEF9091E800815095FDD9
:1010D00006C095ED9A95F1F700008111F5CF80914A
:1010E000E80085FF18C00E94140381110FC0C8E0FA
:1010F000D0E08091E80085FD13C08091E8008E77F4
:101100008093E8000E941403882399F38091E800FB
:101110008E778093E800DF91CF911F910F91089512
:10112000F80181918F018093F100219711F7EECFA3
:10113000CF93DF93EC010E94570888E0FE01ACE4F6
:10114000B5E001900D928A95E1F7DF91CF91089576
:101150004BB1477F5BB15860EFB7F8949B01220F0A
:10116000331F260F371F280F391F2817390741F45F
:10117000EFBF8FE594E00197F1F700C000000895FC
:10118000DC016D91CD0178E05BB9000000C067FF24
:101190004BB9660F000000C000C000C04BB900C0D2
:1011A0007A9591F7E2CFB0E0A0E0E9EDF8E00C9499
:1011B000E1227C015B016A018091F90101E010E00C
:1011C0008A3010F40AE010E0C1E0D0E0B501C701B8
:1011D000F6010995811104C021960C171D072CF406
:1011E000CDB7DEB7EAE00C94FD22CC9F9001CD9FF5
:1011F000300D300D112490E080E045E34A95F1F781
:101200000000019682179307C1F7E0CFAB0124E6F7
:1012100030E0BC0188E70E94792021E0892B09F0A9
:1012200020E0822F08958091340590913705911127
:1012300003C091E089270895882369F062E070E097
:1012400080EB93E00E940609811103C08091340570
:1012500008951092340580913405EBCFCF93C0915F
:101260003405809137058823D1F00E94D903605A54
:1012700075418F4F9F4F6093300570933105809378
:10128000320590933305C11108C062E070E08EEA28
:1012900093E00E940609811105C0C09134058C2F8E
:1012A000CF91089581E080933405F7CFB0E0A0E0BE
:1012B000ECE5F9E00C94DF2249015A016B017C0155
:1012C0000E94B6048401A4016A2D7B2D88E090E081
:1012D0000E94AC2394014A2D5B2DB601C70100E2A8
:1012E0000E944523622F83E290E00E949A23CDB7AB
:1012F000DEB7ECE00C94FB22B0E0A0E0E2E8F9E01D
:101300000C94DF22182FC62FD42F822E00910303B6
:1013100000FF51C080910403811308C08091050330
:10132000861304C080910603841729F0809130024F
:10133000826080933002E02FE695E695F0E0E15977
:10134000FE4F808180932E02802F8C7F8430E9F4C1
:10135000ED2FD93708F0E8E7F0E0E255FD4FC11175
:101360002FC02491F22FE22F00FF0FC08091450182
:101370009091460133E0839FD0011124AF5CBD4FB3
:10138000891708F492C00E94920410930403C0933A
:101390000503D0930603882071F020910303609128
:1013A000070370910803312FAE01809109039091DA
:1013B0000A030E945609CDB7DEB7ECE00C94FB227D
:1013C000EC2EF12CE4919E2ECE2ED12C26E0129FF5
:1013D000C00111242FEF30E0B9010E94C522812FF6
:1013E00090E0880F991FF5E5F69FA001F79F500D3B
:1013F0001124841B950BB82EBB0CB80EA9014E19F5
:101400005F094C9DC0014D9D900D5C9D900D112478
:10141000F92FCB9DA0011124452F5527D901A41BDD
:10142000B50BAC9DA001AD9D500DBC9D500D112480
:10143000D901AB19B1095D01AE9CD001AF9CB00DD3
:10144000BE9CB00D1124AB2FBB272A1B3B0B2C9D40
:10145000D0012D9DB00D3C9DB00D11242B2F62307D
:101460007105A1F050F46115710509F47DCF61306B
:10147000710581F0292FF52F77CF6430710569F060
:1014800080F06630710509F46FCFF4CF2E2FE92F6D
:10149000FB2F6ACF2E2FE52F67CF292FFE2FEB2FA3
:1014A00063CFE92FF92D252F5FCF1196EC9311977C
:1014B0002C931296FC9312978F5F139661CFE3E003
:1014C000F3E0438121E1421B08F440E021E0628126
:1014D00081810E947C090895E3E0F3E0438121E1EA
:1014E000420F08F44FEF21E0628181810E947C0964
:1014F0000895E3E0F3E0628121E1621B08F460E01B
:1015000021E0438181810E947C090895E3E0F3E0BA
:10151000628121E1620F08F46FEF21E04381818154
:101520000E947C090895E3E0F3E0818121E043819A
:10153000628188500E947C090895E3E0F3E0818194
:1015400021E043816281885F0E947C090895809137
:101550000703882319F08150809307032091030328
:1015600030910403409105035091060360910703F5
:10157000709108038091090390910A030E94560913
:10158000089580910703833018F48F5F80930703D9
:101590002091030330910403409105035091060309
:1015A00060910703709108038091090390910A03E9
:1015B0000E94560908952091030320FF24C0237040
:1015C0002460209303038091300281608093300275
:1015D000662381F030910403409105035091060386
:1015E00060910703709108038091090390910A03A9
:1015F0000E94560920E04091060360910503809106
:1016000004030E947C0908958091030386958695C2
:10161000815009F481E061E00E94DB0A089561E0F5
:1016200081E00E94DB0A089590910F0292FB22272D
:1016300020F9281779F080FB92F990930F026091BE
:101640000E0270910F0284E090E00E94B82382E0C5
:101650000E94E3070895ABE0B0E0E1E3FBE00C9407
:10166000E92288E0E3E0F3E0DE01119601900D92BB
:101670008A95E1F780912E0290912F02A09130027D
:1016800089879A87AB872B854091F5015091F601A8
:101690006091F7017091F8013FB7F894809145058A
:1016A00090914605A0914705B09148053FBF841B26
:1016B000950BA60BB70B84369105A105B10510F467
:1016C000222319F1809131019091320189529E4F6C
:1016D0004091300150E04C30510510F04BE050E0AB
:1016E000BE016F5F7F4F0E946D2386E090E00E94F5
:1016F0004F22882369F00E94D9036093F50170930B
:10170000F6018093F7019093F8011092300281E086
:101710002B96E2E00C940523A4E0B0E0E2E9FBE0C4
:101720000C94E8224091D3015091D4016091D501ED
:101730007091D6012FB7F894809145059091460598
:10174000A0914705B09148052FBF841B950BA60BB0
:10175000B70B11E084369105A105B10570F10E9427
:10176000E9046E5F7F4F8F4F9F4F69837A838B832E
:101770009C838091290190912A0189529E4F40912A
:10178000280150E04530510510F044E050E0BE0122
:101790006F5F7F4F0E946D2385E090E00E944F2293
:1017A000182F882351F00E94D9036093D3017093BE
:1017B000D4018093D5019093D601812F2496E3E044
:1017C0000C9404234F925F927F928F929F92AF92DC
:1017D000BF92CF92DF92EF92FF920F931F93CF931E
:1017E000DF930F92CDB7DEB7C62E4A015901482EBE
:1017F000880F5508C2010E944F22782E882309F4D1
:1018000080C0C20133E0880F991F3A95E1F7FC01CF
:10181000E050FF4F438150E04115510511F041E088
:1018200050E080509F4FFC016481758169527E4F6A
:10183000CE0101960E946D23F401408151816281A5
:1018400073812FB7F8948091450590914605A0913A
:101850004705B09148052FBF841B950BA60BB70B0E
:1018600084369105A105B10540F4B701C8010E9475
:1018700010049981891709F444C00C2C000CDD0870
:10188000C6010E944F22782E811113C0712C872D22
:101890000F90DF91CF911F910F91FF90EF90DF900C
:1018A000CF90BF90AF909F908F907F905F904F9020
:1018B0000895C60123E0880F991F2A95E1F7FC01DE
:1018C000E050FF4F438150E0E416F50608F4A7010D
:1018D00080509F4FFC016481758169527E4FC50124
:1018E0000E946D23B701C8010E94100499818913D9
:1018F000CDCF0E94D903F4016083718382839383E7
:10190000C6CFA701B801C5010E946D23C0CFA8E0D2
:10191000B0E0EDE8FCE00C94E52288E0E82EF12C44
:101920000EED11E09E012F5F3F4F4FEC51E063E061
:1019300082E00E94E20B082F882389F19091DD015B
:101940008091CE01981759F110E09091E1018091BA
:10195000E0018917F1F0E92FF0E0E552FE4F8781B1
:1019600087FB662760F99F5F93709093E1019091E8
:10197000DF019F5F9093DF018F770E946704182F2C
:101980008111E3CF84E090E00E944F22012F0823D1
:1019900002C01111F7CF8091DD018093CE01802F1D
:1019A0002896E6E00C940123A5E0B0E0EAEDFCE027
:1019B0000C94E3226B0185E0E82EF12C08ED11E098
:1019C0009E012F5F3F4F4AEC51E061E080E00E94B2
:1019D000E20B882349F095E0FE013196A5ECB1E0D9
:1019E00001900D929A95E1F795E0E5ECF1E0D601D2
:1019F00001900D929A95E1F72596E8E00C94FF226C
:101A00002091B8018091AF01282B8091AE018823ED
:101A100081F0282B30E08EE791E0FC014191CF016D
:101A200041113F5FF1E084389F07B9F731111092FF
:101A3000AE0120937C0148E050E060EB71E08CE760
:101A400091E00E946023892BA9F088E0ECE7F1E0A7
:101A5000A0EBB1E001900D928A95E1F7E09142058B
:101A6000F0914305309731F00280F381E02D8CE74F
:101A700091E0099508951092B801EEE7F1E086E053
:101A8000DF011D928A95E9F71092AF010E94000DC7
:101A90000895AAE2B0E0EFE4FDE00C94E82287E5C7
:101AA00095E02091F100FC012193CF01F5E08F3505
:101AB0009F07B9F780915805833009F470C0B8F4D6
:101AC000813009F447C0823009F4B1C08091E80048
:101AD00083FF64C280915705909158059A3008F0B1
:101AE0005DC2E92FF0E0E053FC4D0C9424238A30D2
:101AF00009F48CC08B3009F46FC0893039F78091BC
:101B00005705813219F780915B0590915C05892B0F
:101B1000E9F68091E800877F8093E8008091E800F3
:101B200082FF38C09091F3008091F200029731F467
:101B30008091F100813011F0863021F48091F10024
:101B400080934B058091E8008B778093E8000E949A
:101B50004503BCCF80915705813A09F0B7CF8091FA
:101B6000E800877F8093E80080915B0590915C0599
:101B7000892B61F468E08CE495E070E00E946403D6
:101B80008091E8008B778093E800A0CF60E090E040
:101B900080E0F3CF80915F058111C0CF97CF809116
:101BA0005705813A09F092CF80915B0590915C05D1
:101BB000892B09F08BCF8091E800877F8093E80024
:101BC0008091E80080FFFCCF809151018093F1006B
:101BD0008091E8008E77B9CF80915705813209F066
:101BE00075CF80915B0590915C05892B09F06ECFD4
:101BF0008091E800877F8093E8000E9445038091F0
:101C00005905809351010E943B0D60CF809157058B
:101C1000813209F05BCF8091E800877F8093E800F4
:101C20000E94450380915A0580934A054FCF8091C9
:101C30005705813A09F04ACF8091E800877F809369
:101C4000E8008091E80080FFFCCF80914A05BECF7C
:101C5000803899F0823809F0A1C180915B058F70BE
:101C6000873008F09BC18093E9008091EB0085FBF1
:101C7000882780F91092E90006C080915405909160
:101C80005505911182609091E800977F9093E8004C
:101C90008093F1001092F1008091E8008E777AC174
:101CA000882309F468C1823009F078C18091590510
:101CB00081116BC180915B058F702FEF280F26304B
:101CC00008F06CC18093E9002091EB0020FF5DC11A
:101CD000933031F48091EB0080628093EB0055C12A
:101CE0009091EB0090619093EB0021E030E001C017
:101CF000220F8A95EAF72093EA001092EA00809179
:101D0000EB008860EACF811149C1109159051F7716
:101D10008091E3008078812B8093E3008091E8003C
:101D2000877F8093E8000E9445038091E80080FF50
:101D3000FCCF8091E30080688093E30082E0111182
:101D400083E080935F052AC18058823008F026C165
:101D50008091590590915A058C3D23E09207A1F599
:101D600083E08A838AE289834FB7F894DE01139671
:101D700020E03EE051E2E32FF0E050935700E49181
:101D800020FF03C0E295EF703F5FEF708E2F90E071
:101D9000EA30C0F0C7968D939D932F5F243159F799
:101DA0004FBF8091E800877F8093E8006AE270E08F
:101DB000CE0101960E9464038091E8008B778093A6
:101DC000E800ECC0C096E7CF40915B0550915C0500
:101DD000292F33272330310509F43FC078F521300E
:101DE000310509F466C082E290E0E6EFF3E02230CC
:101DF000310509F0D3C02091E800277F2093E80047
:101E000020915D0530915E058217930708F49C01CF
:101E100040E02115310509F051C041114FC08091BA
:101E2000E80082FDC9CF80915F05882329F28530C3
:101E300019F28091E80083FFF2CFBECF2132310545
:101E400081F12232310509F0A9C0452B09F0A6C065
:101E500084E490E0E2EBF3E0CECF99278130910566
:101E6000C1F0009759F0029709F098C0EAE2F4E057
:101E7000E4918E2F90E0EAE2F4E007C0E2E5F4E0BE
:101E8000E4918E2F90E0E2E5F4E0009709F0B3CF03
:101E900085C0ECE3F4E0E4918E2F90E0ECE3F4E015
:101EA000F4CF452B09F07AC089E090E0E8E0F4E057
:101EB000A2CF82E190E0E8E1F4E09DCF80915F0560
:101EC000882309F479CF853009F476CF8091E80032
:101ED00083FD72CF8091E80082FDA1CF8091E80060
:101EE00080FF97CF9091F3008091F200211531058A
:101EF00019F08830910550F041E0089709F040E072
:101F00008091E8008E778093E80083CF44914093DE
:101F1000F1003196215031090196E8CF8038F1F572
:101F20008091E800877F8093E80080915605809338
:101F3000F100B2CE811132C010915905123070F506
:101F40008091E800877F8093E800109356050E94F7
:101F50004503112311F084E005C08091E30087FD63
:101F6000FACF81E080935F0561EC81E00E94690215
:101F700080915F0513C080915905813079F481E02B
:101F8000933009F080E0809355051092E90080912C
:101F9000E800877F8093E8000E9445038091E80075
:101FA00083FF0AC08091E800877F8093E8008091DA
:101FB000EB0080628093EB00AA96E3E00C9404238C
:101FC0000E943B0D2FEF84E39CE021508040904025
:101FD000E1F700C0000088E19AE00FB6F894A895F8
:101FE000809360000FBE90936000FFCF882321F0A4
:101FF0000E9411070E94000D0895882339F09091E6
:10200000B801982B9093B8010E94000D0895882381
:1020100091F09CEF980F913A78F4EEE7F1E091910E
:10202000891303C0DF0111971C9291E0E438F9078E
:10203000B1F70E94000D089590E2980F9830D8F7FC
:10204000877091E001C0990F8A95EAF7892F0E9465
:102050001107EFCFCF93C82F8823A9F08CEF8C0FF7
:10206000813A00F5EEE7F1E0DF018D91C81769F0E4
:1020700081E0A438B807C9F76C2F8CE791E00E9483
:10208000E5030E94000DCF9108958191C81303C00C
:10209000DF0111971C9281E0E438F807B1F70E9444
:1020A000000DEACF80E28C0F883068F7C77021E01E
:1020B00030E001C0220FCA95EAF78091B801822B67
:1020C0008093B801DECF80E090913B0520913A05E6
:1020D000291749F1E92FF0E0E45CFA4F20819F5F76
:1020E000937090933B05809139058F5F80933905FC
:1020F00027FD0BC08BE40E942A108FE39CE9019717
:10210000F1F700C000008BE40AC08EE40E942A10A0
:102110008FE39CE90197F1F700C000008EE40E9474
:10212000071081E0D1CF08951F920F920FB60F9242
:1021300011242F933F934F935F936F937F938F93CC
:102140009F93AF93BF93CF93DF93EF93FF93D09180
:10215000E900DF708091EC00C82FC17080FDC0E8FD
:102160001092E9008091F000877F8093F0007894CE
:102170000E94490D1092E9008091F00088608093E0
:10218000F000CD2BCF70C093E900FF91EF91DF916C
:10219000CF91BF91AF919F918F917F916F915F91FF
:1021A0004F913F912F910F900FBE0F901F90189558
:1021B0001F920F920FB60F9211242F933F934F93BC
:1021C0005F936F937F938F939F93AF93BF93EF939F
:1021D000FF938091E10082FF09C08091E20082FFBD
:1021E00005C08091E1008B7F8093E1008091DA004F
:1021F00080FF24C08091D80080FF20C08091DA0049
:102200008E7F8093DA008091D90080FF9CC080E1AE
:1022100089BD82E189BD09B400FEFDCF81E08093D4
:102220005F0580914905811109C00E949B020E94AF
:10223000BA028091E20084608093E2008091E10024
:1022400080FF17C08091E20080FF13C08091E20000
:102250008E7F8093E2008091E20080618093E200B3
:102260008091D80080628093D80019BC85E080936B
:102270005F058091E10084FF2BC08091E20084FF24
:1022800027C080E189BD82E189BD89B5982F917011
:1022900080FFFBCF8091D8008F7D8093D800809104
:1022A000E1008F7E8093E1008091E2008F7E809339
:1022B000E2008091E20081608093E2008091560507
:1022C000882309F446C084E080935F0580915F0510
:1022D0008091E10083FF26C08091E20083FF22C04D
:1022E0008091E100877F8093E10082E080935F0529
:1022F000109256058091E1008E7F8093E1008091DD
:10230000E2008E7F8093E2008091E2008061809302
:10231000E20060E080E00E9469028091F000886045
:102320008093F000FF91EF91BF91AF919F918F91BA
:102330007F916F915F914F913F912F910F900FBEC1
:102340000F901F90189519BC10925F0510924905C7
:1023500075CF8091E30087FD93E090935F05B6CF42
:1023600078941F921FB61F9211248F939F93AF935F
:10237000BF938091450590914605A0914705B09186
:1023800048050196A11DB11D809345059093460512
:10239000A0934705B0934805BF91AF919F918F914E
:1023A0001F901FBE1F9018959C014FB7F894809105
:1023B000450590914605A0914705B09148054FBF4E
:1023C000821B930B08952FB7F89480914505909147
:1023D0004605A0914705B09148052FBF08950F937A
:1023E0001F93CF93DF93C62FD42F022FFC0185813B
:1023F0008823A9F060939C050E94E31190939B05AC
:1024000080939A05C77081E001C0880FCA95EAF7EA
:102410000E94FD0FDF91CF911F910F910895809140
:102420009C05681335C080919A0590919B050E9488
:10243000D411883C910560F510E21D0FCD17B9F05D
:1024400080E28C0F883040F4C77081E001C0880FB3
:10245000CA95EAF70E94F60F183048F481E09D2FE4
:10246000977001C0880F9A95EAF70E94FD0F802FA0
:102470000E942A10802F0E940710183058F6D7703B
:1024800081E001C0880FDA95EAF70E94F60FC2CF0B
:10249000C77081E001C0880FCA95EAF7F6CFB0E0B7
:1024A000A0E0E5E5F2E10C94E1228C01FC018481DD
:1024B000882341F121E040815181628173819581BE
:1024C0000E943208EC01FC01E851FC47E730F105BD
:1024D000A8F5E652FC4D0C94242326E241EE61EE71
:1024E000C8010E94EF118091AD01877059F0F80189
:1024F0008581882339F080910F0282FF03C082E03A
:102500000E94E307CDB7DEB7EAE00C94FD2227E294
:1025100045EE65EEE5CF26E241EE60EEE1CF27E243
:1025200045EE64EEDDCF26E241EE62EED9CF27E242
:1025300045EE66EED5CF28E241E0EBCFF80185818C
:10254000882309F4A7C310929C05CE019057839766
:1025500008F08AC384E090E00E94842390930F02E5
:1025600080930E02FE01E150F047E232F10520F4C3
:10257000EF51FC4D0C94242380910E0281608093D6
:102580000E0295C080910F02886080930F028FC069
:1025900080910E028260F3CF80910E028460EFCFB3
:1025A00080910E028860EBCF80910F028160EDCFA9
:1025B00080910F028260E9CF80910E028061DFCFAF
:1025C00080910E028062DBCF80910E028064D7CFB3
:1025D0000E943B0D80910E028068D1CF80910E0247
:1025E0008C60CDCF80910F028360CFCF80910E029F
:1025F0008E7FC5CF80910F02877FC7CF80910E025B
:102600008D7FBDCF80910E028B7FB9CF80910E025E
:10261000877FB5CF80910F028E7FB7CF80910F0259
:102620008D7FB3CF80910E028F7EA9CF80910E0255
:102630008F7DA5CF80910E028F7BA1CF0E943B0D95
:1026400080910E028F779BCF80910E02837F97CF70
:1026500080910F028C7F99CF80910E0282FB992787
:1026600090F921E0922790FB82F990FB83F987CFC4
:1026700080910F02982F909591708E7F892B90FBFF
:1026800081F983CF90910E02892F8F7B96FF806412
:1026900076CF0E943B0D90910E02892F97FB87F910
:1026A00080586DCF61E08EE090E00E949A236091A7
:1026B0000E0270910F0284E090E00E94B8230E9405
:1026C0003B0D11CF60E0EFCF90910E02892F8F7EEE
:1026D00094FF806154CF90910E02892F8E7F90FFDE
:1026E00081604DCF90910F02892F877F93FF886083
:1026F0004CCF85E3D8C28091030380FF1CC0282FF4
:102700002E7F2093030330910403409105035091E1
:10271000060360910703709108038091090390916B
:102720000A030E9456098091300281608093300232
:102730000E949204D8CE81608093030361E0869565
:1027400086950E94DB0ACFCE44E05BE06FE07BE041
:102750000E948C04C8CE4FE05BE064E07BE0F8CFE1
:1027600043E95AE06DE97AE0F3CF4DE95AE063E9D5
:102770007AE0EECF49E75AE066E87AE0E9CF46E84A
:102780005AE069E77AE0E4CF4FE55AE06CE67AE098
:10279000DFCF4CE65AE06FE57AE0DACF47EA5AE05D
:1027A00061EC7AE0D5CF41EC5AE067EA7AE0D0CF2D
:1027B00061E081E0C6CF0E943B0DFFEF24E33CE0E7
:1027C000F15020403040E1F700C000000E94C803F3
:1027D0006FEF7FEF90E080E00E94B8230E94E00F4F
:1027E00080910F0282FB882780F991E089270E945F
:1027F000140BF8018581C081D181882309F44DC073
:10280000CE010E942207F82E682FCE010E94960763
:10281000BE018F2D0E94F4050E941306F82EC92FC9
:10282000A82EF801C580B680B2949FE0B9228091AD
:10283000AD01877009F1EC2CCC20F9F08C2F807F52
:10284000803469F080E28F0D8830B0F08C2F807E6C
:10285000803229F4F1E0FF1578F4BB2069F0809113
:102860000F0282FF09C082E00E94E3078091AD0160
:102870008770EE24E3948111E12CDC2ED2948FE05A
:10288000D8222BE02D1508F46AC0ED2DF0E0ED5FA5
:10289000FB4D0C94242380E0AACFCE010E94630755
:1028A000F82EB6CFDC2FDF70C07F11F0D295D07F2D
:1028B000CC20B9F0DD2369F080E28F0D883010F074
:1028C000A11009C08091B801D82BD093B8010E9403
:1028D000000D8F2D42C08091AF01D82BD093AF0156
:1028E000F6CF8F2D0E940710DD23C9F180E28F0DF6
:1028F000883010F0A11004C08D2F0E94110706C06F
:10290000D0958091AF01D823D093AF010E94000DE4
:1029100026C0DC2FDF70C07FC03211F0D295D07F8F
:10292000AA2059F031E0A31609F478C0CC2009F4AC
:1029300084C0BB2009F446C0CCCF80910F0282FD39
:102940003DC0CC20A9F1DD2339F08091B801D82B0E
:10295000D093B8010E94000D80E00E942A10ED2D56
:10296000E850FF0B349710F40E94FF03EE20A9F00B
:102970008091AD0180FD11C0F80115828695869584
:1029800086950E94FA07C8010E944F128091AD01FE
:102990008695869586950E94D10720E0F8014081B2
:1029A000518162817381848195810E943208AACD10
:1029B00080E00E940710DD2391F29ECFCC20A1F091
:1029C000B11004C08D2F0E94FD0FC9CF81E0B81255
:1029D000C6CF8091AE019D2F9823D91709F4BFCFA0
:1029E000D82BD093AE01BBCFB110B9CF8D2F0E94A1
:1029F000F60F9091AE018D2F892329F08D2F8095B0
:102A000089238093AE01809185019D2F982309F43D
:102A1000A6CFD095D823D0938501A1CFCC2029F083
:102A200095E09B1508F49BCFCDCFE4E0EB1508F4BF
:102A300096CF8D2F0E94F60F92CFBB20D1F3F9E3F2
:102A4000AF120BC12FEF37EE83E0215030408040B2
:102A5000E1F700C0000001C18C2F837009F03FC076
:102A6000C1107DCF4F2D429546954770440F440FBE
:102A70002F2D2F7030E0042E02C0220F331F0A9436
:102A8000E2F790E080E0F4FE09C08FE090E002C041
:102A9000880F991F4A95E2F780959095C695C6953F
:102AA000C370C23099F078F440910A0250910B0241
:102AB000C13039F0822B932B842395230E940A087E
:102AC0004ECF242B352B822B932BF8CF822B932B9D
:102AD00020910A0230910B0282279327EFCF86952F
:102AE000CC2011F08C2F8170882309F438CF4F2D22
:102AF000429546954770440F440F2F2D2F7030E0BC
:102B0000042E02C0220F331F0A94E2F790E080E007
:102B1000F4FE09C08FE090E002C0880F991F4A952B
:102B2000E2F780959095C695C695C370C23099F02E
:102B300078F440910C0250910D02C13039F0822B93
:102B4000932B842395230E94CC0709CF242B352B6C
:102B5000822B932BF8CF822B932B20910C02309158
:102B60000D0282279327EFCFCF70CC2029F08C2F36
:102B70000E94FA078F2D27CF8F2D0E94F60F8C2FE2
:102B80000E94D107ECCE8F2D92EFA91699F19A15DC
:102B900070F0E0EFAE16D1F0F1EFAF1691F0CC206F
:102BA00009F456C0B11095CE8C2F8F7127C023EF3A
:102BB000A21639F134EFA312F2CF90910F0292FDD9
:102BC0002EC08C2F8F71CC20D9F218C0CC2069F088
:102BD00084E08B1508F4C3CECF7181E090E002C091
:102BE000880F991FCA95E2F7B8CF95E09B1508F4B6
:102BF000B6CEF2CF8C2F8F71C110C2CF0E94FA07D0
:102C0000AECE90E080E0CC2009F49DCFCF7181E082
:102C100090E002C0880F991FCA95E2F794CFCC20AC
:102C200061F08C2F8F7192FFE9CFE8E08E9F9001C9
:102C3000112423602093AD01E1CF81E00E94E307DE
:102C4000F1E0FB1508F08BCE82E00E94E30787CE0F
:102C5000BB2039F0893309F4F5CE8F2D0E9407107F
:102C60007ECE8C2F8F718CCFC631FCE7DF0749F504
:102C70008091B8018A7A91E009F490E09093840100
:102C800069E2811165E38CE791E00E94E5030E940F
:102C9000000D29CCC6312CE7D20799F5809184012B
:102CA000811127CD89E2EEE7F1E024E831E091914E
:102CB000891303C0DF0111971C922E173F07B9F744
:102CC000E6CFC3303CE7D30709F482CD50F4C115F9
:102CD0009CE7D90709F46FCDC130DC4709F47ECDFC
:102CE00088CDCB35FCE7DF0709F4D5CDCC352CE713
:102CF000D20709F475CDCA35DC4709F07ACD81E0F9
:102D000076CD8091B8018272FE01E052F847E5313C
:102D1000F10508F06ECDE15FFB4D0C942423CF93B9
:102D2000DF938091AC01807F09F04DC08091AB01B1
:102D3000882309F448C0E091990550916005C0913D
:102D4000A701D091A6016091A8017091A90147E067
:102D50005E17C9F18E2F90E0E49FF0011124EF5926
:102D6000FA4F2481222391F1489FF001499FF00DF1
:102D70001124DF01AF59BA4F11962C9111972C13E2
:102D800025C02C912D1322C015962C911597211139
:102D90001DC012962D913C91261B370B283C310506
:102DA000A8F48091AC018F7080618093AC01E959E7
:102DB000FA4F80818F708061808386EA91E00E9463
:102DC0004F120E941807DF91CF910895FC013196B0
:102DD000E770BECFA4E1B0E0E0EFF6E10C94DF22B3
:102DE0008C0186E0F801DE011F9601900D928A9514
:102DF000E1F7F8018481E58096EAA92E91E0B92EE9
:102E00009091AA01911128C0882319F1EE20F1F0C8
:102E1000C8010E940F08F82E8823C1F087E0F8014E
:102E2000D50101900D928A95E1F78091AA01813038
:102E300031F48091A6019091A7010E9456070E944B
:102E40008F168F2D6496ECE00C94FB22C8010E9433
:102E50004F12FF24F394F5CFD080C18082809380FD
:102E6000F090AB012091A8013091A901A401421B6F
:102E7000530BFF2009F4D9C0483C510508F092C01B
:102E80008823F9F29091A7018091AC01282F207F2F
:102E900009F056C0C91214C09091A601D91210C0F1
:102EA000E11048C08F7080618093AC0186EA91E0A8
:102EB0000E944F128091AC01F8018683F12CC1CFA2
:102EC000E11038C06C2D8D2D0E944A026C2D8D2D85
:102ED0000E944A02E82E8111F1CFDF86C88A8F85D1
:102EE00098890E945607292F22952F70243058F474
:102EF0009F70223088F0992399F0F8019681907F95
:102F000079F4FE2C9ECF2A5F2F70223068F0C80122
:102F10000E944F12EF2CF5CF992311F0882389F3EB
:102F2000805E883070F3F3CF803F58F3815F833049
:102F300070F7E7CF8091AC0181608093AC01BECF88
:102F4000C91207C09091A601D91203C0EE2009F45E
:102F50008DC0C8010E940F08882309F477CFEE20A6
:102F600009F474CF8091AC01803288F02091A601E1
:102F70003091A701398728879B868A869091AA017C
:102F80009C871D868E87CE0108960E944F1287E08F
:102F9000F801A6EAB1E001900D928A95E1F70E944E
:102FA0008F1657CF9091AC01292F207F51F486EADC
:102FB00091E00E944F1287E0F50111928A95E9F79E
:102FC0007DCF882309F43DCF8091A7018C1110C0DB
:102FD0008091A601D8120CC0E1100AC09683C801E6
:102FE0000E944F1287E0F50111928A95E9F729CFE7
:102FF000C8010E940F08882309F428CFEE2009F4A5
:1030000025CF8091AC01803210F22091A601309141
:10301000A7013A8329839C828B829091AA019D8388
:103020001E828F83CE010196B0CF483C5105D0F669
:10303000882309F40ECFFE2CEE2009F407CF8091EF
:10304000A7018C1120C08091A601D8121CC08091CC
:10305000AC0180FD0FC0982F907F61F08683903F78
:1030600031F0982F907F905F8F70892B8683C801F5
:103070000E944F1287E0F801A6EAB1E001900D929C
:103080008A95E1F7DECEC8010E940F0881117FCF3B
:103090008091AC0181608093AC01C8010E944F1205
:1030A000D0CEABE1B0E0E7E5F8E10C94E7224E8B3F
:1030B0005F8B688F798F8A8F9B8F192F9111109258
:1030C000AF011D8A86E0FE017696DE011F96019013
:1030D0000D928A95E1F70A8D002341F021E04F859A
:1030E000588969897A89C8010E9432080B8B1C8B28
:1030F00087E0FE013F96DE01189601900D928A95B9
:10310000E1F7CE0108960E94EA1681112AC087E0F5
:10311000FE013896DE01119601900D928A95E1F735
:103120008C858823F1F02091600530E0C90101967B
:10313000877099274091990548171906E9F097E09B
:10314000929FD001939FB00D1124AF59BA4FFE0149
:10315000319601900D929A95E1F7809360050E9457
:10316000180717E08091990590916005891312C0A6
:103170006B96E4E00C9403230E943B0D10926005D3
:103180001092990587E0E6EAF1E0DF011D928A9549
:10319000E9F7E7CF819FC00111248F599A4F0E9410
:1031A000EA16882329F38091990590E001968770AB
:1031B000992780939905D6CF2F923F925F926F9275
:1031C0007F928F929F92AF92BF92CF92DF92EF92B7
:1031D000FF920F931F93CF93DF938091370588233E
:1031E00069F180913505909136050E94D411C297FE
:1031F00030F00E94E311909336058093350580915D
:103200002E0590912F05892B59F58091340588233F
:10321000A9F00E94D9030091300510913105209149
:10322000320530913305601B710B820B930B6F3F9E
:103230007F4F8F4F9F4710F40E941309DF91CF916A
:103240001F910F91FF90EF90DF90CF90BF90AF90C4
:103250009F908F907F906F905F903F902F900895F8
:1032600080912D058111D1CF0E942E0920912E052C
:1032700030912F052115310541F280E041E050E009
:10328000082F10E01A01082E02C0220C331C0A94E9
:10329000E2F7B10162237323672B11F48F5FF0CF44
:1032A00090912C0590FF95C0880F880F880F809310
:1032B0004A0110924D01895F80934B0183E0809316
:1032C0004E0124E630E047E050E068E471E088E732
:1032D0000E943520892B09F098CFA80125E0440FE2
:1032E000551F2A95E1F780912C0580FF84C0ECE002
:1032F000F3E080E2DF011D928A95E9F7A5E7B1E0EE
:1033000001E711E089E7C82E81E0D82E97E0592E19
:10331000772473948D91E80129918E01240F352F24
:10332000311D245D3C4FE82FF0E0E45FFC4F90E05E
:1033300080E0652C681A872C082E01C0880C0A943E
:10334000EAF77901A12CE701B9907E01B820662D3A
:103350006A196770962E062E000C770BDB2D01C0C4
:10336000DD0F9A94EAF77195619571096770772777
:1033700001C0B6946A95EAF7BD2A6081962E9B2813
:103380009082A39468E0A612DECF01963196883031
:10339000910579F6CA16DB0609F0BCCF04E610E009
:1033A00020E230E04CE053E060E488E70E94BF2078
:1033B000892B09F02ACFE101C095D09580912E0587
:1033C00090912F05C823D923D0932F05C0932E05A4
:1033D0001CCF8295880F807680934A01980136959C
:1033E00027953695279520934D01815E80934B015B
:1033F00020934E0166CF445D5C4F04E610E020E26E
:1034000030E0D2CFA5E1B0E0E8E0FAE10C94DE22B2
:103410008E01045F1F4F8AE0F80111928A95E9F747
:1034200084E5C82E81E0D82EF12CE12CAA24A394A7
:10343000B12C2FE5822E21E0922EF60181916F01B1
:103440008F3F09F442C0F894E82FE295EF70F0E066
:1034500021A18F70A50102C0440F551F8A95E2F784
:10346000CA01922F982B91A392A18095892382A3C0
:10347000789400C0E9E5F1E0712C31E021912F3F13
:1034800009F49CC0A22FA295AF70B0E090968C91E9
:1034900090E02F7002C0959587952A95E2F780FD00
:1034A0008DC0832F782A330F8E169F0639F7F601C9
:1034B000319780818F3F11F00E94D20450EA5A95D3
:1034C000F1F7F801EE0DFF1D70828FEFE81AF80A90
:1034D00095E0E916F10409F0B0CF4AE050E0B801F8
:1034E0008EEF91E00E946023009741F02AE0F801FE
:1034F000AEEFB1E001900D922A95E1F7009109023B
:1035000010E00F5E1D4F892B09F45AC081E08093B3
:10351000BD010E94E3119093BC018093BB01D12CAB
:10352000C0904005FE0131967F0185E0CC2009F472
:103530009DC011928A95E9F78091F9018A3008F0CF
:1035400063C044ED5CE0B701C8010E94D308882342
:1035500009F47BC047E85CE0B701C8010E94D308CA
:10356000882309F472C04CE85BE0B701C8010E94EF
:10357000D308882309F469C04BE25BE0B701C801B6
:103580000E94D308882309F460C01092F901809149
:10359000080290E045E050E0B7018F5E9D4F0E9429
:1035A000602321E02093C401892B09F042C0C12C83
:1035B0008C2D8D296596EDE00C94FA2280E072CF77
:1035C000D090BD01DD2009F4AACF8091BB0190917C
:1035D000BC010E94D411059708F4A1CF45E050E04A
:1035E0006EEF71E0C8010E946023892B59F085E0DD
:1035F000EEEFF1E0D80101900D928A95E1F710927B
:10360000BD018ECFD12CFBCF8091BE019091BF0127
:103610000E94D411843F914008F093CF8091C4015F
:10362000882329F285E0F70111928A95E9F7109233
:10363000C401A0910802B0E0AF5EBD4F85E0F70184
:1036400001900D928A95E1F7B3CF8091F9018F3FF8
:1036500031F08F5F8093F9018A3008F498CF0E948F
:10366000E3119093BF018093BE01D8CFF801A8ED7C
:10367000B1E001900D928A95E1F765E070E088ED88
:1036800091E00E9410048093D70188E0E8E3F5E020
:10369000AEEDB1E001900D928A95E1F768E070E03F
:1036A0008EED91E00E9410048093DD018090E60190
:1036B0009090E701A090E801B090E9018091C001ED
:1036C0009091C101A091C201B091C30188169906E1
:1036D000AA06BB06B1F08092C0019092C101A092EF
:1036E000C201B092C3010E94D903861A970AA80AA0
:1036F000B90A8092FA019092FB01A092FC01B0926B
:10370000FD018BE0EAEEF1E0D70101900D928A9580
:10371000E1F72981822F869586950A81FB80EC80CE
:103720001B851092F401112309F442CF10FF0AC047
:103730009091030320FF0FC091609093030360E01A
:103740000E94DB0A11FF34CF20E04E2D6F2D802F19
:103750000E947C092DCF9E7F9093030380913002BD
:103760008160809330020E949204ECCFA6E0B0E02A
:10377000ECEBFBE10C94E7220E94E3118C018091B9
:10378000B9019091BA018017910781F019821A82CC
:103790000E94E311682F49815A81792F80E090E0DF
:1037A0000E9451181093BA010093B9012696E4E0E3
:1037B0000C9403231F921FB61F9211248F939F9383
:1037C000AF93BF9380914405811113C0809145054B
:1037D00090914605A0914705B09148054196A11DDD
:1037E000B11D8093450590934605A0934705B0937E
:1037F0004805BF91AF919F918F911F901FBE1F9061
:103800001895CDB7DEB72A970FB6F894DEBF0FBE76
:10381000CDBF85B7806885BF85B7806885BF84B711
:10382000877F84BF0FB6F894A89580916000886167
:1038300080936000109260000FBE80E890E00FB6A9
:10384000F89480936100909361000FBE8CEC94E03B
:1038500090937B0180937A010E949B020E94BA029E
:103860008091E20084608093E200789480915F050B
:103870008823A1F01091E9001F709091EC00892F2E
:10388000817090FD80E8182B1092E9008091E8008B
:1038900083FD0E94490D1F701093E90082E084BDF2
:1038A00093E095BD9AEF97BD80936E001092FA0158
:1038B0001092FB011092FC011092FD018091D80042
:1038C00080618093D8002AE12A95F1F700C08091A9
:1038D000D900182F117080FD04C00E949B02109225
:1038E0005F05109340051093410510933801112393
:1038F00009F400C11092430183E2809344010E94C5
:103900006321E8E3F5E088E0DF011D928A95E9F79D
:103910008091380191E089278093280280913801B5
:1039200090932B028091380180913801811106C05B
:1039300085EF80934F0184EF8093500160E080E039
:103940000E94440461E080E00E944404EFE8F1E05A
:103950003197F1F700C0000010E080912B0218179A
:1039600008F4CEC0809138018091380195E0811132
:1039700090E09093090285E0891B8093080204E59A
:1039800011E059E5E52E51E0F52ED8018D918D011C
:103990008F3F11F00E94D204E016F106B1F709E55D
:1039A00011E0F80181918F018F3F11F00E94D20444
:1039B000F1E00F351F07A9F78AE0E1E1F2E0DF014E
:1039C000282F1D922A95E9F7EEEFF1E0DF011D9215
:1039D0008A95E9F790E080E00E948423853E9E4F1F
:1039E00009F461C065EE7EEF90E080E00E94B823AC
:1039F00060E082E090E00E949A2381E090E0909362
:103A00000B0280930A0261E083E090E00E949A2317
:103A100060E074E184E090E00E94B82360E086E01A
:103A200090E00E949A2360E087E090E00E949A2351
:103A300040E050E0BA0188E090E00E94AC2360E0F2
:103A400083E290E00E949A2360E08CE090E00E9484
:103A50009A2360E08DE090E00E949A2319821A82F6
:103A60001B821C821D821E821F82188648E050E045
:103A700067E170E0CE0101960E948A2340E050E0A9
:103A8000BA018FE190E00E94AC2340E050E0BA011F
:103A90008FE090E00E94AC2340E050E0BA0183E167
:103AA00090E00E94AC2382E090E00E947623809315
:103AB0001B0284E090E00E94842390930F02809385
:103AC0000E020E94021AEFEFF6E721E0E150F0400B
:103AD0002040E1F700C000000E94021A809111020C
:103AE00080FF20C06FEF7FEF90E080E00E94B8235E
:103AF0000E94C80383E2809343018093440101CF75
:103B000060E0812F0E942804082F61E0812F0E942D
:103B10002804E12FF0E0E75DFD4F880F802B8083C4
:103B20001F5F1BCF83E090E00E94762390E00E940D
:103B30000A0810922C0580E880930B030E94012054
:103B40006BE070E083EA92E00E9406098823C9F1E5
:103B500080912C0565E070E081FD2AC18EE992E03C
:103B60000E940609882369F16DE070E08CE892E01C
:103B70000E940609882329F10E94D903605A7541E1
:103B80008F4F9F4F609330057093310580933205BE
:103B900090933305ECE2F3E080E092E0DF019C01DA
:103BA0001D9221503040E1F78FEF9FEF90932F054A
:103BB00080932E0581E08093370580933405109221
:103BC0002D0580911002811184C088E090E00E9450
:103BD0007E234B015C0183E290E00E947623282F34
:103BE00030E040E050E060E070E080E090E000E233
:103BF0000E942A23282939294A295B292093030373
:103C00003093040340930503509306036093070326
:103C1000709308038093090390930A033091300254
:103C20003360309330022C7F09F043C025E02093AD
:103C30000303109204032FEF2093050328E720933A
:103C400006031092070325E030E04FEF58E760E0ED
:103C50000E94560988E090E00E947E236B017C015F
:103C600083E290E00E947623282F30E040E050E08D
:103C700060E070E080E090E00E942A23B22FA32F42
:103C8000F42FE52F5B0197018601BC29A12BFE29AA
:103C9000E32BB0930303A0930403F0930503E09395
:103CA000060360930703B09208038093090390937F
:103CB0000A030E94B6040E9426048091030380FF39
:103CC00005C060E0869586950E94DB0A81E08093BE
:103CD000100280914005811102C00E94662189E393
:103CE00091E0909343058093420598E1692E712CF1
:103CF0002BE1C22E22E0D22E34E0A32EB12C46E2DC
:103D0000842E42E0942E80915F0510E4853009F402
:103D100083C00E94021A0CE112E081E1E82E82E0E9
:103D2000F82ED701F80191918D918E169F0609F416
:103D30007DC09817C1F3909140059987512CD70108
:103D40004D907D01F80181918F01841541F1312C55
:103D50002224239484258A878A858221C1F0F985CB
:103D6000FF23A9F039825A820E94E3119C838B833E
:103D700021E02D8391E0842D822109F490E09E833F
:103D800049815A816B817C818D810E9451183394C5
:103D9000220C36E03312E0CFF80131974082539481
:103DA0008AE05812CCCF0E94E9044424439443C0D3
:103DB00089E992E0D5CE80915F05843019F10E94A7
:103DC0001309109244050FB6F894A895609260000C
:103DD0000FBE1093600083B7817F846083BF83B779
:103DE000816083BF7894889583B78E7F83BF0FB639
:103DF000F894A8958091600088618093600010928B
:103E000060000FBE0E94021AE1E1F2E0819181118F
:103E100089C0CE16DF06D1F780915F05853009F4A1
:103E2000CACF0E943B0D0E94FF0373CF981383CF2C
:103E30000E94B61B412C50904005552019F00E945D
:103E40006310582E80912C02882351F010922C027E
:103E500080913A0580933B05809138058093390520
:103E6000E12C80912B02E81688F080914005882390
:103E700019F00E946310582A552009F443C00E948B
:103E8000E9040E94DC180E942E0940C061E08E2DDA
:103E90000E942804182F60E08E2D0E942804E12F34
:103EA000EE0F8E2B0E2D10E0D801A75DBD4FEC91CB
:103EB0009E2F9370891721F1EE0FEE0FE82BEC93F4
:103EC000809128028E0DEF70F0E0E15AFE4F0A5DFE
:103ED0001D4FF080D8019C91F90EFC92B3E060E098
:103EE000BF1524F0EDEFFE161CF461E00E9467049C
:103EF0008F2DFF0C990BB5010E941023D8018C93D4
:103F0000E394AFCF0E94DC184110BDCF0E94FF03A5
:103F100090912D02891709F4F6CE80932D020E940C
:103F2000D903F1CE80915505882309F475CF30E18E
:103F300039BD82E189BD09B400FEFDCF8091D80072
:103F40008F7D8093D8008091E00082608093E000B4
:103F50008091E00081FDFCCF0E943B0D5DCFEF9290
:103F6000FF920F931F93CF93DF93182FEB011092C3
:103F7000BC0084EA8093BC000E94E3117C01809124
:103F8000BC0087FF27C08091B900887F883029F066
:103F90008091B900887F803189F51093BB0084E857
:103FA0008093BC000E94E3118C018091BC0087FFCC
:103FB0001EC02091B900287F90E080E0283191F068
:103FC00081E090E0203411F490E080E091958195BB
:103FD000910908C0C7010E94D411C817D90778F603
:103FE0008EEF9FEFCDB7DEB7E6E00C940123C8015A
:103FF0000E94D411C817D907C0F6F2CF8FEF9FEFF8
:10400000F1CF1092B9008CE08093B80008950F931F
:104010001F93CF93DF93EB018093BB0084E88093E1
:10402000BC000E94E3118C018091BC0087FF11C08D
:104030002091B900287F81E090E0283211F490E0CF
:1040400080E0919581959109DF91CF911F910F911A
:104050000895CF3FDC0741F3C8010E94D411C8176F
:10406000D90710F78EEF9FEFEFCFB0E0A0E0EBE3C2
:10407000F0E20C94DE22782E5B016A0189010E9435
:10408000E3114C01C1E0D0E00431110558F0C5E066
:10409000D0E00F3F100731F0C80164E170E00E94EA
:1040A000C522EB01BE01872D0E94AF1F7C0197FF47
:1040B00009C00F3F1007B1F3C4010E94D4110817C3
:1040C000190780F7E501CA0CDB1CCC15DD0511F0E2
:1040D000F7FE09C084E98093BC00C701CDB7DEB705
:1040E000EDE00C94FA22B80189910E9407207C012E
:1040F000ECCFB0E0A0E0EFE7F0E20C94DE22782E07
:104100005B016A0189010E94E3114C01C1E0D0E02A
:104110000431110558F0C5E0D0E00F3F100731F031
:10412000C80164E170E00E94C522EB01BE01872D49
:104130000E94AF1F7C0197FF09C00F3F1007B1F32A
:10414000C4010E94D4110817190780F7E501CA0CB1
:10415000DB1CCC15DD0511F0F7FE09C084E9809366
:10416000BC00C701CDB7DEB7EDE00C94FA22FE012A
:104170008491B8010E9407207C012196EACFB0E02B
:10418000A0E0E5ECF0E20C94DD22682E762E5A01D8
:1041900069010E94E3114C01C1E0D0E00431110536
:1041A00058F0C5E0D0E00F3F100731F0C80164E1DE
:1041B00070E00E94C522EB01BE01862D0E94AF1F58
:1041C0007C0197FF1DC00F3F1007B1F3C4010E948F
:1041D000D4110817190780F784E98093BC00C70140
:1041E000CDB7DEB7EEE00C94F922B80189910E94B8
:1041F00007207C01CC16DD0679F3F7FEF6CFECCF75
:10420000B801872D0E9407207C01E501CA0CDB1C48
:10421000F1CF8EE14A9B02C08150E1F74A9BFECF6D
:1042200008955A9880E28A95F1F75A9A0895FC0108
:104230003BE03A95F1F798E020E080E031E040E1A2
:104240004A95F1F7880F4A9B02C08160232742E01C
:104250004A95F1F7000040E14A95F1F7915079F75E
:1042600090E19A95F1F799B132E03A95F1F70000B3
:1042700040E14A95F1F792FB992790F99227208126
:10428000920F90830895A1E0B0E0E9E4F1E20C948C
:10429000E52219828C017C01E60EF11C0E151F052A
:1042A00041F481E09981911180E02196E6E00C943F
:1042B00001230E940921CE0101960E941721F801D5
:1042C00081938F01EBCF529A5A9A089552985A9A35
:1042D000EA9AE9E6F0E080818F7C8083089561505E
:1042E000770B91E001C0990F6A95EAF720E031E081
:1042F000911108C0222391F05A9A80E28A95F1F731
:104300005A980895492F482339F05A9A232740E2B2
:104310004A95F1F79695ECCF5A98F9CF5A98EDCF88
:10432000FF920F931F93CF93DF93EC018C01060F45
:10433000111DC017D10729F4CDB7DEB7E5E00C9405
:104340000223F9900E94112168E08F2D0E946F21B5
:10435000F0CF1F920F920FB60F9211240F931F935D
:104360002F933F934F935F936F937F938F939F937D
:10437000AF93BF93EF93FF93CF93DF930F92CDB79C
:10438000DEB719820E940921CE0101960E941721F1
:10439000082F069506950695282F22952570902FB3
:1043A0009570290F922F937026952695920F982736
:1043B00097708981982B09F05CC0083008F059C0CB
:1043C00080E18A95F1F75A9A529A82E08A95F1F73C
:1043D00000C05A9888E0089F80011124D801A0509D
:1043E000BF4F1696ED91FC9117973097A9F0609109
:1043F00052017091530114962D913C911597260FFF
:10440000371F11968D919C911297680F791F139603
:104410004C9113978C910995F801E050FF4F6381FF
:10442000662351F02091520130915301848195818E
:10443000820F931F0E9490210E94112180E18A9592
:10444000F1F75A9852985A9A80E18A95F1F7F80153
:10445000E050FF4F6081662351F02091520130916E
:10446000530181819281820F931F0E9443210E94F8
:1044700009210F90DF91CF91FF91EF91BF91AF9103
:104480009F918F917F916F915F914F913F912F916C
:104490001F910F910F900FBE0F901F9018950F93C3
:1044A0001F93CF93DF93EC0108970CF04CC0F89466
:1044B000529A5A9885E08A95F1F700009C2F9695BC
:1044C00095708C2F8570980F892F8370969596958F
:1044D00023E0CC0FDD1F2A95E1F7980F8E01092B01
:1044E0000E94112100C068E0802F0E946F2180E1AE
:1044F0008A95F1F752985A9A4A9B1EC087E090E03D
:104500004A991CC0FE01E050FF4F63816623F9F019
:10451000209152013091530184819581820F931F24
:104520000E944321811113C0529A5A9A7894DF91C4
:10453000CF911F910F91089500C0DECF019729F40C
:10454000529A5A9A789480E0F2CF00C0D9CF0E9454
:10455000092180E28A95F1F75A98529A80E18A956A
:10456000F1F7C050DF4F6881662351F0209152016E
:104570003091530189819A81820F931F0E9490216B
:104580000E941121789481E0D2CFAA1BBB1B51E17C
:1045900007C0AA1FBB1FA617B70710F0A61BB70BB3
:1045A000881F991F5A95A9F780959095BC01CD0158
:1045B00008952F923F924F925F926F927F928F92C7
:1045C0009F92AF92BF92CF92DF92EF92FF920F93A2
:1045D0001F93CF93DF93CDB7DEB7CA1BDB0B0FB6AC
:1045E000F894DEBF0FBECDBF09942A883988488869
:1045F0005F846E847D848C849B84AA84B984C884FF
:10460000DF80EE80FD800C811B81AA81B981CE0FF5
:10461000D11D0FB6F894DEBF0FBECDBFED010895DA
:1046200097FB072E16F4009407D077FD09D00E945F
:10463000C52207FC05D03EF4909581959F4F0895C3
:10464000709561957F4F0895EE0FFF1F0590F491CF
:10465000E02D0994002E083090F0982F872F762FA8
:10466000652F542F432F322F22270850F4CF220FCB
:10467000331F441F551F661F771F881F991F0A95F8
:10468000B2F7002D089597FD1094002E083098F091
:104690000850232F342F452F562F672F782F892F1F
:1046A000912DF4CF159497958795779567955795A4
:1046B0004795379527950A95AAF71124002D089557
:1046C000FB01DC0104C08D910190801921F441505F
:1046D0005040C8F7881B990B0895FB01DC0102C00C
:1046E00001900D9241505040D8F70895F999FECFAE
:1046F00092BD81BDF89A992780B50895A6E1B0E0F2
:1047000044E050E00C94C023A8E1B0E042E050E067
:104710000C94C023DC01A40FB51F4150504048F059
:10472000CB01840F951F2E910E949B234150504036
:10473000D0F70895262FF999FECF92BD81BDF89A42
:10474000019700B4021639F01FBA20BD0FB6F894D5
:10475000FA9AF99A0FBE08950396272F0E949B2379
:104760000E949A23252F0E949B23242F0C949B2385
:104770000196272F0E949B230C949A23DC01CB01E6
:10478000FC01F999FECF06C0F2BDE1BDF89A319661
:1047900000B40D9241505040B8F70895F894FFCFFF
:1047A000280E500ECE0F500ECE0F830EA40ECE0F3D
:1047B0008E0F9A0F8B128F126D128712931297120F
:1047C0009B12F6126B13FE12C812CC120213D012F7
:1047D00006131213DC126413E0121613E4121A13F8
:1047E0004213E8121E134913EE1224132C13D41291
:1047F0000A13D8120E13F21228133813521362132D
:10480000C212FA1272135214521489148914AF147A
:10481000AF14AF14AF142C15B415C315C3157B1307
:10482000A413AB13B013B513BA13BF13C413C91336
:10483000CE13D313D813731273127312731273122D
:0848400073127312731273125C
:104848000000000100000000000000050100000059
:10485800000000010600000000000008070000003A
:10486800000000000000CE04040F0000000000005B
:104878000B1300000000000001C5039808C203C420
:1048880003C30300460046460021007F220003F4CC
:10489800F501D7016697C63435F6F731333236005D
:1048A800FF0100010000FFFF0000010001FF000000
:0A48B8000100081018181008000095
:00000001FF
